:0F176100EF600C007E027DC7DDFEDEFC1F80F115
:011770002256
:10168F0020B1107F1412176130B1FD7F1412176152
:10169F0075630120B0107F1412176130B0FD7F14F5
:1016AF0012176175630220B2107F1412176130B2E6
:1016BF00FD7F1412176175630320B3107F14121787
:1016CF006130B3FD7F14121761756304AF637E0041
:0116DF0022E8
:1015A400043600000000043A00000000043E00007D
:1015B4000000024400000246000002480000024A03
:1015C4000000021000090208000002180009021AB3
:1015D4000009021C0009020E0000020C00000214A3
:1015E40000001022000000000000000000000000C5
:1015F40000000000041E0000000A0432000C000B6E
:10160400021600000212000002500000020A00004C
:03000B00021724B5
:10172400C0E0C0D0758CFC758A18050BE50B7002FF
:10173400050AC39470E50A941740067512007513E0
:0617440000D0D0D0E0321D
:100D3B0012139C755F008F6012168F8E618F62E5A8
:100D4B00606401455F6049E5606402455F6041E5B1
:100D5B00606403455F6039E5606404455F6031E5BD
:100D6B00606405455F6029E5606406455F6021E5C9
:100D7B00606407455F6019E5606408455F6011E5D5
:100D8B00606409455F6009E560455F6003020FEB36
:100D9B00855F16856017E4F50AF50BF54275430779
:100DAB00AF43EF25E02420F8E6FC08E6FDEF25E055
:100DBB002422F8A60408A605E54315437002154244
:100DCB00E543454270DA851622851723E511640940
:100DDB0045107007F5107511098008E51115117094
:100DEB00021510E5154514AE2CAF2D6003020EF362
:100DFB00EE3395E0FDFC7BA07A8679017800121228
:100E0B0014C004C005C006C007AE2EAF2FEE33953D
:100E1B00E0FDFC7B407A42790F7800121214D0036C
:100E2B00D002D001D000EF2BFFEE3AFEED39FDECF6
:100E3B0038FCC004A905AA06AB07AE2AAF2B7C274A
:100E4B007D101211CCEE3395E0FDFCD000EB2FFFA3
:100E5B00EA3EFEE93DFDE83CFCC004A905AA06AB51
:100E6B0007AE28AF297C037DE81211CCEE3395E059
:100E7B00FDFCD000EB2FFFEA3EFEE93DFDE83CFC1C
:100E8B00C004A905AA06AB07AE26AF277C007D647C
:100E9B001211CCEE3395E0FDFCD000EB2FFFEA3EB8
:100EAB00FEE93DFDE83CFCC004A905AA06AB07AE74
:100EBB0024AF257C007D0A1211CCEE3395E0FDFCAE
:100ECB00D000EB2FFBEA3EFAE93DF9E83CF8AE2205
:100EDB00EE3395E0FDFCEB2523F539EA3EF538E9D9
:100EEB003DF537E83CF53622EE3395E0FDFC7BA073
:100EFB007A8679017800121214C004C005C006C0AE
:100F0B0007AE2EAF2FEE3395E0FDFC7B407A427996
:100F1B000F7800121214D003D002D001D000EF2BA7
:100F2B00FFEE3AFEED39FDEC38FCC004A905AA062C
:100F3B00AB07AE2AAF2B7C277D101211CCEE33956D
:100F4B00E0FDFCD000EB2FFFEA3EFEE93DFDE83C67
:100F5B00FCC004A905AA06AB07AE28AF297C037D0C
:100F6B00E81211CCEE3395E0FDFCD000EB2FFFEA3D
:100F7B003EFEE93DFDE83CFCC004A905AA06AB0713
:100F8B00AE26AF277C007D641211CCEE3395E0FDCD
:100F9B00FCD000EB2FFFEA3EFEE93DFDE83CFCC038
:100FAB0004A905AA06AB07AE24AF257C007D0A1267
:100FBB0011CCEE3395E0FDFCD000EB2FFBEA3EFAB3
:100FCB00E93DF9E83CF8AE22EE3395E0FDFCEB256C
:100FDB0023F53DEA3EF53CE93DF53BE83CF53A228D
:100FEB00E560640A455F704AF50AF50BF54A754BE7
:100FFB0001855F16856017F548F549F514751501E0
:10100B00F50C750D01851018851119F51075110961
:10101B00F508F509F542F543E54325E02422F8E40C
:10102B00F608F60543E54370020542640745427036
:10103B00E722E560640B455F60030210C8F50AF513
:10104B000B855F16856017AF39AE38AD37AC36EC14
:10105B004D4E4F7007F544754501801EAF3DAE3CBC
:10106B00AD3BAC3AEC4D4E4F60030211CBE54B64FC
:10107B0001454A700BF546754701F5487549012244
:10108B00751400751501750C00750D02851018850A
:10109B001119751000751109E4F508F509F542F5FC
:1010AB0043E54325E02422F8E4F608F60543E5433F
:1010BB00700205426407454270E7021164E5606403
:1010CB000C455F7047F50AF50BF54A754B01855FCB
:1010DB0016856017F514751501F50C750D03851044
:1010EB0018851119F510751109F508F509F542F573
:1010FB0043E54325E02422F8E4F608F60543E543EF
:10110B00700205426407454270E7804DE560640D4F
:10111B00455F704CF50AF50BF54A754B01855F166B
:10112B00856017F514751501F50C750D04851018F0
:10113B00851119F510751109F508F509F542F543F7
:10114B00E54325E02422F8E4F608F60543E5437071
:10115B000205426407454270E7750E00750F642265
:10116B00E5606410455F7010F50AF50BF50E750F11
:10117B0006855F1685601722E560640F455F701A60
:10118B00F50AF50BF50E750F07F510751108855F50
:10119B0016856017F50875090122E5626401456142
:1011AB007008F50AF50BF50E8013E56264024561D4
:1011BB00700E0551E55170020550750E00750F0844
:0111CB002201
:10000E0012174A7D0D7C007F01121624120D3BAE95
:10001E0050AF517C007D021211DE8C128D13E51350
:10002E00451260E8120D3BAE50AF517C007D0212BE
:10003E0011DE8C128D13E54925E0241EF8E6FC082E
:10004E00E6FD7F01121624AD2FAC2E7F0212162470
:10005E00AD2DAC2C7F03121624AD2BAC2A7F0412CF
:10006E001624AD29AC287F05121624AD27AC267FA9
:10007E0006121624AD25AC247F07121624AD23AC30
:10008E00227F0812162475320075330CE50925E01F
:10009E002432F8E6FC08E6FDAF11121624E50F64D3
:1000AE0006450E6003020CBFF548F54985101A850A
:1000BE00111BF510751109E50D6401450C60030265
:1000CE000452C3E519951BE518951A4003020182E7
:1000DE00851810851911750800750901E51B64094D
:1000EE00451A6043C3E51B9519F51DE51A9518F5DC
:1000FE001CE4F542F543C3E543951DE542951C40CE
:10010E0003020242AF3DAE3CAD3BAC3AE47B0AFA91
:10011E00F9F81212148F3D8E3C8D3B8C3A0543E557
:10012E004370D3054280CFE51B6409451A60030274
:10013E000242C374089519F51DE49518F51CE4F5F3
:10014E0042F543C3E543951DE542951C400302026B
:10015E0042AF3DAE3CAD3BAC3AE47B0AFAF9F81245
:10016E0012148F3D8E3C8D3B8C3A0543E54370D384
:10017E00054280CFE519B51B13E518B51A0E851A81
:10018E0010851B11F51C85191D020242D3E5199528
:10019E001BE518951A5003020242E5196409451829
:1001AE006045851A10851B11E519951BF51DE5187F
:1001BE00951AF51CE4F542F543C3E543951DE5425A
:1001CE00951C5070AF39AE38AD37AC36E47B0AFAB9
:1001DE00F9F81212148F398E388D378C360543E5A7
:1001EE004370D6054280D2E51964094518704585DD
:1001FE001A10851B11C37408951BF51DE4951AF58D
:10020E001CE4F542F543C3E543951DE542951C50AC
:10021E0023AF39AE38AD37AC36E47B0AFAF9F812B3
:10022E0012148F398E388D378C360543E54370D6D0
:10023E00054280D2E545640145447010E5476401EE
:10024E0045467008F54875490102034FE5456401BE
:10025E0045447067E54745467061AF3DAE3CAD3BEA
:10026E00AC3AAB39AA38A937A836C3121263401973
:10027E00E539953DF541E538953CF540E537953B3B
:10028E00F53FE536953A020339AF3DAE3CAD3BAC9A
:10029E003AAB39AA38A937A836D3121263400302F3
:1002AE000367C3E53D9539F541E53C9538F540E5E5
:1002BE003B9537F53FE53A9536803AE5454544702E
:1002CE0074E54764014546706CAF3DAE3CAD3BAC4A
:1002DE003AAB39AA38A937A836C3121263401FE5C4
:1002EE0039953DF541E538953CF540E537953BF5BB
:1002FE003FE536953AF53EE4F548F549805BAF3D6E
:10030E00AE3CAD3BAC3AAB39AA38A937A836D312BE
:10031E0012635045C3E53D9539F541E53C9538F5F9
:10032E0040E53B9537F53FE53A9536F53E75480085
:10033E007549018024E5454544701EE547454670E4
:10034E0018E539253DF541E538353CF540E53735BD
:10035E003BF53FE536353AF53E7B407A42790F78EC
:10036E0000AF41AE40AD3FAC3E1216E0E47B0AFA60
:10037E00F9F81216E0AE02AF038E2E8F2F7BA07A05
:10038E008679017800AF41AE40AD3FAC3E1216E02B
:10039E00E47B0AFAF9F81216E0AE02AF038E2C8F48
:1003AE002DE47B107A27F9F8AF41AE40AD3FAC3E5D
:1003BE001216E0E47B0AFAF9F81216E0AE02AF0369
:1003CE008E2A8F2BE47BE87A03F9F8AF41AE40AD6D
:1003DE003FAC3E1216E0E47B0AFAF9F81216E0AED4
:1003EE0002AF038E288F29E47B64FAF9F8AF41AE91
:1003FE0040AD3FAC3E1216E0E47B0AFAF9F8121655
:10040E00E0AE02AF038E268F27E47B0AFAF9F8AF2F
:10041E0041AE40AD3FAC3E1216E0E47B0AFAF9F86D
:10042E001216E0AE02AF038E248F25E47B0AFAF992
:10043E00F8AF41AE40AD3FAC3E1216E0AE02AF0398
:10044E008E228F23E50D6402450C6003020796C3CE
:10045E00E519951BE518951A400302050F8518102E
:10046E00851911750800750901E51B6409451A60A7
:10047E0043C3E51B9519F51DE51A9518F51CE4F512
:10048E0042F543C3E543951DE542951C4003020525
:10049E0076AF3DAE3CAD3BAC3AE47B0AFAF9F812CE
:1004AE0012148F3D8E3C8D3B8C3A0543E54370D341
:1004BE00054280CFE51B6409451A6003020576C329
:1004CE0074089519F51DE49518F51CE4F542F543ED
:1004DE00C3E543951DE542951C4003020576AF3DED
:1004EE00AE3CAD3BAC3AE47B0AFAF9F81212148F2B
:1004FE003D8E3C8D3B8C3A0543E54370D3054280DF
:10050E00CFE519B51B12E518B51A0D851A10851B06
:10051E0011F51C85191D8050D3E519951BE518950D
:10052E001A4045851A10851B11E519951BF51DE519
:10053E0018951AF51CE4F542F543C3E543951DE500
:10054E0042951C5023AF39AE38AD37AC36E47B0A3A
:10055E00FAF9F81212148F398E388D378C3605430E
:10056E00E54370D6054280D2E54564014544706A84
:10057E00E547640145467062AF3DAE3CAD3BAC3ADB
:10058E00AB39AA38A937A836C31212634019E53918
:10059E00953DF541E538953CF540E537953BF53F02
:1005AE00E536953A0206A3AF3DAE3CAD3BAC3AAB59
:1005BE0039AA38A937A836D312126340030206AB04
:1005CE00C3E53D9539F541E53C9538F540E53B955C
:1005DE0037F53FE53A953602066DE545640145442B
:1005EE00701FE54745467019E539253DF541E5385B
:1005FE00353CF540E537353BF53FE536353A0206F5
:10060E00A3E54545447020E547640145467018E56D
:10061E0039253DF541E538353CF540E537353BF5B7
:10062E003FE536353A8038E54545447070E5474537
:10063E0046706AAF3DAE3CAD3BAC3AAB39AA38A979
:10064E0037A836C3121263401FE539953DF541E5D3
:10065E0038953CF540E537953BF53FE536953AF54F
:10066E003EE4F548F5498035AF3DAE3CAD3BAC3A86
:10067E00AB39AA38A937A836D3121263501FC3E577
:10068E003D9539F541E53C9538F540E53B9537F517
:10069E003FE53A9536F53E7548007549017B407A3F
:1006AE0042790F7800AF41AE40AD3FAC3E1216E03E
:1006BE00E47B0AFAF9F81216E0AE02AF038E2E8F23
:1006CE002F7BA07A8679017800AF41AE40AD3FAC6A
:1006DE003E1216E0E47B0AFAF9F81216E0AE02AF0B
:1006EE00038E2C8F2DE47B107A27F9F8AF41AE40A4
:1006FE00AD3FAC3E1216E0E47B0AFAF9F81216E0B2
:10070E00AE02AF038E2A8F2BE47BE87A03F9F8AFA3
:10071E0041AE40AD3FAC3E1216E0E47B0AFAF9F86A
:10072E001216E0AE02AF038E288F29E47B64FAF92D
:10073E00F8AF41AE40AD3FAC3E1216E0E47B0AFA94
:10074E00F9F81216E0AE02AF038E268F27E47B0A6D
:10075E00FAF9F8AF41AE40AD3FAC3E1216E0E47B85
:10076E000AFAF9F81216E0AE02AF038E248F25E4D2
:10077E007B0AFAF9F8AF41AE40AD3FAC3E1216E03F
:10078E00AE02AF038E228F23E50D6403450C60038A
:10079E00020985F508750901E51964094518601DFA
:1007AE00E51B6409451A6015E519251BCFE51835BB
:1007BE001ACF24F8F511EF34FFF5108035E51964E2
:1007CE000945187010E51B6409451A6008851A1052
:1007DE00851B11801DE519640945186010E51B6421
:1007EE0009451A70088518108519118005E4F50859
:1007FE00F509E54564014544702AE547640145461F
:10080E007022AF3DAE3CAD3BAC3AAB39AA38A937FE
:10081E00A8361212148F418E408D3F8C3EE4F5485F
:10082E00F5498068E545640145447008E54745464D
:10083E007002800EE5454544702BE5476401454640
:10084E007023AF3DAE3CAD3BAC3AAB39AA38A937BD
:10085E00A8361212148F418E408D3F8C3E75480083
:10086E007549018027E54545447021E547454670A9
:10087E001BAF3DAE3CAD3BAC3AAB39AA38A937A85D
:10088E00361212148F418E408D3F8C3E7B407A4241
:10089E00790F7800AF41AE40AD3FAC3E1216E0E4AA
:1008AE007B0AFAF9F81216E0AE02AF038E2E8F2FE6
:1008BE007BA07A8679017800AF41AE40AD3FAC3E69
:1008CE001216E0E47B0AFAF9F81216E0AE02AF0354
:1008DE008E2C8F2DE47B107A27F9F8AF41AE40AD08
:1008EE003FAC3E1216E0E47B0AFAF9F81216E0AEBF
:1008FE0002AF038E2A8F2BE47BE87A03F9F8AF411F
:10090E00AE40AD3FAC3E1216E0E47B0AFAF9F812A7
:10091E0016E0AE02AF038E288F29E47B64FAF9F855
:10092E00AF41AE40AD3FAC3E1216E0E47B0AFAF9A1
:10093E00F81216E0AE02AF038E268F27E47B0AFA7A
:10094E00F9F8AF41AE40AD3FAC3E1216E0E47B0A83
:10095E00FAF9F81216E0AE02AF038E248F25E47B6F
:10096E000AFAF9F8AF41AE40AD3FAC3E1216E0AE1A
:10097E0002AF038E228F23E50D6404450C60030243
:10098E000CB9D3E519951BE518951A5003020A48C0
:10099E00751000751109E4F508F509E519640945A6
:1009AE0018604AE519951BF51DE518951AF51CE416
:1009BE00F542F543E51D24FFFFE51C34FFFEC3E5BC
:1009CE00439FE5429E4003020AA2AF39AE38AD37CF
:1009DE00AC36E47B0AFAF9F81212148F398E388D80
:1009EE00378C360543E54370CB054280C7E5196465
:1009FE000945186003020AA2C37408951BF51DE48D
:100A0E00951AF51CE4F542F543C3E543951DE54201
:100A1E00951C4003020AA2AF39AE38AD37AC36E4AE
:100A2E007B0AFAF9F81212148F398E388D378C36FC
:100A3E000543E54370D3054280CFE519B51B12E59A
:100A4E0018B51A0D751000751109E4F508F5098031
:100A5E0043C3E519951BE518951A5038E51B640933
:100A6E00451A601DC37408951BF51DE4951AF51CF7
:100A7E00E519251DF511E518351CF51075080080D2
:100A8E0010E51B6409451A700B851810851911F5B0
:100A9E0008750901AF39AE38AD37AC36E47B64FA70
:100AAE00F9F81212148F398E388D378C36E545646D
:100ABE000145447022E54764014546701AAB3DAAD4
:100ACE003CA93BA83A1216E08F418E408D3F8C3EDA
:100ADE00E4F548F5498068E545640145447008E54C
:100AEE004745467002800EE5454544702BE5476448
:100AFE000145467023AB3DAA3CA93BA83AAF39AE9F
:100B0E0038AD37AC361216E08F418E408D3F8C3E9D
:100B1E007548007549018027E54545447021E54734
:100B2E004546701BAB3DAA3CA93BA83AAF39AE383F
:100B3E00AD37AC361216E08F418E408D3F8C3EE4C1
:100B4E007B0AFAF9F8AF41AE40AD3FAC3E1216E06B
:100B5E00AE02AF038E4C8F4DE47B64FAF9F8AF41D1
:100B6E00AE40AD3FAC3E1216E0AE02AF038E4E8FDE
:100B7E004FE54D454C7020E54F454E701AAF41AED6
:100B8E0040AD3FAC3E7B64FAF9F81216E08F418E11
:100B9E00408D3F8C3E8029750800750901E5116472
:100BAE00094510600E74FE2511F51174FF3510F510
:100BBE0010800DE511640945107005F510751106CC
:100BCE007B407A42790F7800AF41AE40AD3FAC3EEC
:100BDE001216E0E47B0AFAF9F81216E0AE02AF0341
:100BEE008E2E8F2F7BA07A8679017800AF41AE4092
:100BFE00AD3FAC3E1216E0E47B0AFAF9F81216E0AD
:100C0E00AE02AF038E2C8F2DE47B107A27F9F8AF4E
:100C1E0041AE40AD3FAC3E1216E0E47B0AFAF9F865
:100C2E001216E0AE02AF038E2A8F2BE47BE87A0316
:100C3E00F9F8AF41AE40AD3FAC3E1216E0E47B0A90
:100C4E00FAF9F81216E0AE02AF038E288F29E47B74
:100C5E0064FAF9F8AF41AE40AD3FAC3E1216E0E497
:100C6E007B0AFAF9F81216E0AE02AF038E268F2732
:100C7E00E47B0AFAF9F8AF41AE40AD3FAC3E121636
:100C8E00E0E47B0AFAF9F81216E0AE02AF038E2406
:100C9E008F25E47B0AFAF9F8AF41AE40AD3FAC3E8A
:100CAE001216E0AE02AF038E228F23750E00750F63
:100CBE0064E50F6408450E600302002CF514F5156B
:100CCE00F539F538F537F536F53DF53CF53BF53AA2
:100CDE00F541F540F53FF53EF544F545F546F5474A
:100CEE00F548F549F54AF54BF510751109F51875E6
:100CFE001909F51A751B09F51C751D09F508F50975
:100D0E00F50CF50DF516F517F542F543E54325E01F
:100D1E002422F8E4F608F60543E543700205426422
:0D0D2E0007454270E7E4F50EF50F02002CBA
:10139C0075630075640E7590FFC2932097137F14CC
:1013AC001217613097FD7F14121761756300756415
:1013BC00072096137F141217613096FD7F141217B5
:1013CC00617563007564042095137F1412176130E6
:1013DC0095FD7F14121761756300756401209412DA
:1013EC007F141217613094FD7F14121761E4F563BA
:1013FC00F5647590FFC2922097137F141217613019
:10140C0097FD7F141217617563007564082096139D
:10141C007F141217613096FD7F14121761756300EB
:10142C007564052095137F141217613095FD7F1498
:10143C001217617563007564022094137F141217E0
:10144C00613094FD7F1412176175630075640F751C
:10145C0090FFC2912097137F141217613097FD7F74
:10146C00141217617563007564092096137F1412AA
:10147C0017613096FD7F1412176175630075640651
:10148C002095137F141217613095FD7F141217618C
:10149C007563007564032094137F141217613094E4
:1014AC00FD7F141217617563007564107590FFC28F
:1014BC00902097137F141217613097FD7F14121729
:1014CC006175630075640A2096137F1412176130DE
:1014DC0096FD7F1412176175630075640B209513CC
:1014EC007F141217613095FD7F141217617563001C
:1014FC0075640C2094137F141217613094FD7F14C3
:0B150C0012176175630075640DAF6479
:0115170022B1
:10174A005389F0438901758A18758CFCC28DD28C35
:07175A00D2A9D2AFC2B922EF
:0F1614000D523F065B4F666D7D077F6F40800074
:10162400EF14B40800505490163975F003A4C58320
:1016340025F0C58373021651021655021659021677
:101644005D021661021669021671021679D2A4802F
:101654000ED2A48012D2A48016D2A4801AC2A4D21C
:10166400A3D2A28016C2A4D2A3C2A2800EC2A4C2D4
:10167400A3D2A28006C2A4C2A3C2A274522DF8E6C9
:0B168400F5807F01121761E4F5802261
:03000000021518CE
:0C151800787FE4F6D8FD75816402155F51
:1011CC00EF8DF0A4A8F0CF8CF0A428CE8DF0A42E37
:0211DC00FE22F1
:1011DE00C2D5EC30E709B2D5E4C39DFDE49CFCEE2C
:1011EE0030E715B2D5E4C39FFFE49EFE121279C319
:1011FE00E49DFDE49CFC800312127930D507C3E414
:06120E009FFFE49EFE229A
:10121400E88FF0A4CC8BF0A42CFCE98EF0A42CFC79
:101224008AF0EDA42CFCEA8EF0A4CDA8F08BF0A4F7
:101234002DCC3825F0FDE98FF0A42CCD35F0FCEB56
:101244008EF0A4FEA9F0EB8FF0A4CFC5F02ECD391B
:0F125400FEE43CFCEAA42DCE35F0FDE43CFC2288
:1016E000C2D5E830E70FB2D5E4C39BFBE49AFAE435
:1016F00099F9E498F8EC30E717B2D51217161213DF
:101700000AE4C39BFBE49AFAE499F9E498F88003AD
:1017100012130A30D50DE4C39FFFE49EFEE49DFD45
:04172000E49CFC2227
:10126300EB9FF5F0EA9E42F0E99D42F0EC6480C802
:0612730064809845F022A2
:1015240002000EE493A3F8E493A34003F68001F2CF
:1015340008DFF48029E493A3F85407240CC8C333C8
:10154400C4540F4420C8834004F456800146F6DF97
:10155400E4800B01020408102040809015A4E47E6E
:10156400019360BCA3FF543F30E509541FFEE4938C
:10157400A360010ECF54C025E060A840B8E493A353
:10158400FAE493A3F8E493A3C8C582C8CAC583CA7E
:10159400F0A3C8C582C8CAC583CADFE9DEE780BE36
:0116230000C6
:10127900BC000BBE0029EF8DF084FFADF022E4CC59
:10128900F875F008EF2FFFEE33FEEC33FCEE9DEC22
:10129900984005FCEE9DFE0FD5F0E9E4CEFD22ED68
:1012A900F8F5F0EE8420D21CFEADF075F008EF2FB2
:1012B900FFED33FD4007985006D5F0F222C398FDA3
:0512C9000FD5F0EA2240
:1012CE0075F008758200EF2FFFEE33FECD33CDCCD7
:1012DE0033CCC58233C5829BED9AEC99E58298405A
:1012EE000CF582EE9BFEED9AFDEC99FC0FD5F0D637
:1012FE00E4CEFBE4CDFAE4CCF9A88222B800C1B961
:10130E000059BA002DEC8BF084CFCECDFCE5F0CB9E
:10131E00F97818EF2FFFEE33FEED33FDEC33FCEBD7
:10132E0033FB10D703994004EB99FB0FD8E5E4F992
:10133E00FA227818EF2FFFEE33FEED33FDEC33FC7F
:10134E00C933C910D7059BE99A4007EC9BFCE99A73
:10135E00F90FD8E0E4C9FAE4CCFB2275F010EF2FB8
:10136E00FFEE33FEED33FDCC33CCC833C810D707B8
:10137E009BEC9AE899400AED9BFDEC9AFCE899F8F3
:0E138E000FD5F0DAE4CDFBE4CCFAE4C8F92286
:00000001FF
